:100000000C942A000C9464000C9483000C94A200BD
:100010000C9434000C9434000C9434000C94340090
:100020000C9434000C9434000C9434000C94340080
:100030000C9434000C9434000C9434000C94340070
:100040000C9434000C9434000C9434000C94340060
:100050000C94340011241FBECFE5D8E0DEBFCDBF25
:100060000E9461000C94C1000C94000081B3806276
:1000700081BB81B3806481BB81B3806881BB81B364
:100080008B7F81BB81B3877F81BB85B7816085BF53
:1000900085B78D7F85BF85B7846085BF85B788604C
:1000A00085BF84B78F7B84BF8BB780628BBF8BB7D4
:1000B00080648BBF8BB780688BBF8FB780688FBF22
:1000C00008950E943600FFCF1F920F920FB60F9235
:1000D00011242F938F939F9382B3806282BB2FEF63
:1000E00089E698E1215080409040E1F700C000008F
:1000F00082B38F7D82BB9F918F912F910F900FBE06
:100100000F901F9018951F920F920FB60F92112407
:100110002F938F939F9382B3806482BB2FEF89E6E6
:1001200098E1215080409040E1F700C0000082B388
:100130008F7B82BB9F918F912F910F900FBE0F905D
:100140001F9018951F920F920FB60F9211242F93A4
:100150008F939F9382B3806882BB2FEF89E698E1EB
:10016000215080409040E1F700C0000082B38F77BB
:1001700082BB9F918F912F910F900FBE0F901F9078
:060180001895F894FFCF72
:00000001FF
