:100000000C942A000C9434000C9434000C943400AA
:100010000C9434000C9434000C9434000C94340090
:100020000C9434000C9434000C9434000C94340080
:100030000C9434000C9434000C9434000C94340070
:100040000C9434000C9434000C9434000C94340060
:100050000C94340011241FBECFE5D8E0DEBFCDBF25
:100060000E949E000C94A4000C94000088B3877F2B
:1000700088BB83ED90E30197F1F700C0000088B3DF
:10008000886088BB0895CF93C82F0E945900CBBBCE
:1000900088B3897F88BB89EF90E00197F1F700C0B2
:1000A00000000E943600CF91089581E00E94430035
:1000B00008951ABA88B3846088BB88B38D7F88BBE3
:1000C0000E9436008FEF8ABB88B38B7F88BB0E946B
:1000D0005500089587E893E10197F1F700C000000B
:1000E0000E94590087B38E6087BB88B3817F88BB2D
:1000F0008FEF8ABB0E94550088E30E94430086E090
:100100000E94430080E80E9443008FE00E94430069
:100110000895CF93C82F0E945900CBBB88B38B7F23
:1001200088BB88B3826088BB89EF90E00197F1F7C4
:1001300000C000000E943600CF9108950E946A001E
:0C01400081E40E948900FFCFF894FFCFFB
:00000001FF
